{
  "address": "0x0AAB22f764BdAB3De18Ee3a5b52A898185b9CD1F",
  "abi": [
    {
      "anonymous": false,
      "inputs": [
        {
          "indexed": true,
          "internalType": "address",
          "name": "previousOwner",
          "type": "address"
        },
        {
          "indexed": true,
          "internalType": "address",
          "name": "newOwner",
          "type": "address"
        }
      ],
      "name": "OwnershipTransferred",
      "type": "event"
    },
    {
      "inputs": [],
      "name": "aRIP",
      "outputs": [
        {
          "internalType": "address",
          "name": "",
          "type": "address"
        }
      ],
      "stateMutability": "view",
      "type": "function"
    },
    {
      "inputs": [],
      "name": "addressToSendBNB",
      "outputs": [
        {
          "internalType": "address",
          "name": "",
          "type": "address"
        }
      ],
      "stateMutability": "view",
      "type": "function"
    },
    {
      "inputs": [
        {
          "internalType": "uint256",
          "name": "paymentAmount_",
          "type": "uint256"
        }
      ],
      "name": "calculateSaleQuote",
      "outputs": [
        {
          "internalType": "uint256",
          "name": "",
          "type": "uint256"
        }
      ],
      "stateMutability": "view",
      "type": "function"
    },
    {
      "inputs": [],
      "name": "endOfSale",
      "outputs": [
        {
          "internalType": "uint256",
          "name": "",
          "type": "uint256"
        }
      ],
      "stateMutability": "view",
      "type": "function"
    },
    {
      "inputs": [],
      "name": "getAllotmentPerBuyer",
      "outputs": [
        {
          "internalType": "uint256",
          "name": "",
          "type": "uint256"
        }
      ],
      "stateMutability": "view",
      "type": "function"
    },
    {
      "inputs": [
        {
          "internalType": "address",
          "name": "_addressToSendBNB",
          "type": "address"
        },
        {
          "internalType": "address",
          "name": "_aRIP",
          "type": "address"
        },
        {
          "internalType": "uint256",
          "name": "_saleLength",
          "type": "uint256"
        }
      ],
      "name": "initialize",
      "outputs": [
        {
          "internalType": "bool",
          "name": "",
          "type": "bool"
        }
      ],
      "stateMutability": "nonpayable",
      "type": "function"
    },
    {
      "inputs": [],
      "name": "owner",
      "outputs": [
        {
          "internalType": "address",
          "name": "",
          "type": "address"
        }
      ],
      "stateMutability": "view",
      "type": "function"
    },
    {
      "inputs": [],
      "name": "purchaseaRIP",
      "outputs": [
        {
          "internalType": "bool",
          "name": "",
          "type": "bool"
        }
      ],
      "stateMutability": "payable",
      "type": "function"
    },
    {
      "inputs": [],
      "name": "renounceOwnership",
      "outputs": [],
      "stateMutability": "nonpayable",
      "type": "function"
    },
    {
      "inputs": [],
      "name": "salePrice",
      "outputs": [
        {
          "internalType": "uint256",
          "name": "",
          "type": "uint256"
        }
      ],
      "stateMutability": "view",
      "type": "function"
    },
    {
      "inputs": [],
      "name": "saleStarted",
      "outputs": [
        {
          "internalType": "bool",
          "name": "",
          "type": "bool"
        }
      ],
      "stateMutability": "view",
      "type": "function"
    },
    {
      "inputs": [
        {
          "internalType": "address",
          "name": "_sendaRIPTo",
          "type": "address"
        }
      ],
      "name": "sendRemainingaRIP",
      "outputs": [
        {
          "internalType": "bool",
          "name": "",
          "type": "bool"
        }
      ],
      "stateMutability": "nonpayable",
      "type": "function"
    },
    {
      "inputs": [
        {
          "internalType": "uint256",
          "name": "_saleLength",
          "type": "uint256"
        }
      ],
      "name": "setEndOfSale",
      "outputs": [
        {
          "internalType": "bool",
          "name": "",
          "type": "bool"
        }
      ],
      "stateMutability": "nonpayable",
      "type": "function"
    },
    {
      "inputs": [],
      "name": "totalParticipants",
      "outputs": [
        {
          "internalType": "uint256",
          "name": "",
          "type": "uint256"
        }
      ],
      "stateMutability": "view",
      "type": "function"
    },
    {
      "inputs": [],
      "name": "totalPurchased",
      "outputs": [
        {
          "internalType": "uint256",
          "name": "",
          "type": "uint256"
        }
      ],
      "stateMutability": "view",
      "type": "function"
    },
    {
      "inputs": [
        {
          "internalType": "address",
          "name": "newOwner_",
          "type": "address"
        }
      ],
      "name": "transferOwnership",
      "outputs": [],
      "stateMutability": "nonpayable",
      "type": "function"
    }
  ],
  "transactionHash": "0x40bbf1385dd9c8226a481884a134c54f8c904bc76faa9d912b05b676514bf937",
  "args": [],
  "numDeployments": 1,
  "solcInputHash": "f567a959f6e4b29db09bffc5b247d8b6",
  "bytecode": "0x6080604052670de0b6b3a764000060035534801561001c57600080fd5b50600080546001600160a01b03191633178082556040516001600160a01b039190911691907f8be0079c531659141344cd1fd0a4f28419497f9722a3daafe3b4186f6b6457e0908290a361102e806100756000396000f3fe6080604052600436106100f35760003560e01c80639b12ddfc1161008a578063d0f3ca9a11610059578063d0f3ca9a146102a1578063e632c2f3146102b6578063f2fde38b146102cb578063f51f96dd146102fe576100f3565b80639b12ddfc1461022f5780639fca13ae14610262578063a26dbf2614610277578063c7541a151461028c576100f3565b80635c474f9e116100c65780635c474f9e146101bd578063715018a6146101d257806374f4783e146101e95780638da5cb5b146101fe576100f3565b8063031edf52146100f85780631794bb3c146101145780632092c12b146101575780633197ed2414610193575b600080fd5b610100610313565b604080519115158252519081900360200190f35b34801561012057600080fd5b506101006004803603606081101561013757600080fd5b506001600160a01b0381358116916020810135909116906040013561056d565b34801561016357600080fd5b506101816004803603602081101561017a57600080fd5b503561069c565b60408051918252519081900360200190f35b34801561019f57600080fd5b50610100600480360360208110156101b657600080fd5b50356106ad565b3480156101c957600080fd5b5061010061071f565b3480156101de57600080fd5b506101e7610728565b005b3480156101f557600080fd5b506101816107de565b34801561020a57600080fd5b506102136107e4565b604080516001600160a01b039092168252519081900360200190f35b34801561023b57600080fd5b506101006004803603602081101561025257600080fd5b50356001600160a01b03166107f3565b34801561026e57600080fd5b5061021361098c565b34801561028357600080fd5b5061018161099b565b34801561029857600080fd5b506102136109a1565b3480156102ad57600080fd5b506101816109b0565b3480156102c257600080fd5b506101816109ec565b3480156102d757600080fd5b506101e7600480360360208110156102ee57600080fd5b50356001600160a01b03166109f2565b34801561030a57600080fd5b50610181610afe565b60075460009060ff161515600114610360576040805162461bcd60e51b815260206004820152600b60248201526a139bdd081cdd185c9d195960aa1b604482015290519081900360640190fd5b60055442106103b6576040805162461bcd60e51b815260206004820152600a60248201527f53616c6520656e64656400000000000000000000000000000000000000000000604482015290519081900360640190fd5b60006103c134610b04565b600154604080516370a0823160e01b815233600482015290519293506000926001600160a01b03909216916370a0823191602480820192602092909190829003018186803b15801561041257600080fd5b505afa158015610426573d6000803e3d6000fd5b505050506040513d602081101561043c57600080fd5b505190506104486109b0565b6104528383610b29565b11156104a5576040805162461bcd60e51b815260206004820152601160248201527f4d6f7265207468616e20616c6c6f746564000000000000000000000000000000604482015290519081900360640190fd5b3360009081526008602052604090205460ff166104e8576004546104ca906001610b29565b600455336000908152600860205260409020805460ff191660011790555b6006546104f59083610b29565b6006556002546040516001600160a01b03909116903490600081818185875af1925050503d8060008114610545576040519150601f19603f3d011682016040523d82523d6000602084013e61054a565b606091505b505060015461056491506001600160a01b03163384610b8a565b60019250505090565b600080546001600160a01b031633146105cd576040805162461bcd60e51b815260206004820181905260248201527f4f776e61626c653a2063616c6c6572206973206e6f7420746865206f776e6572604482015290519081900360640190fd5b60075460ff1615610625576040805162461bcd60e51b815260206004820152601360248201527f416c726561647920696e697469616c697a656400000000000000000000000000604482015290519081900360640190fd5b6001805473ffffffffffffffffffffffffffffffffffffffff19166001600160a01b0385161790556106578242610b29565b600555506007805460ff19166001908117909155600280546001600160a01b03861673ffffffffffffffffffffffffffffffffffffffff199091161790559392505050565b60006106a782610b04565b92915050565b600080546001600160a01b0316331461070d576040805162461bcd60e51b815260206004820181905260248201527f4f776e61626c653a2063616c6c6572206973206e6f7420746865206f776e6572604482015290519081900360640190fd5b6107178242610b29565b600555919050565b60075460ff1681565b6000546001600160a01b03163314610787576040805162461bcd60e51b815260206004820181905260248201527f4f776e61626c653a2063616c6c6572206973206e6f7420746865206f776e6572604482015290519081900360640190fd5b600080546040516001600160a01b03909116907f8be0079c531659141344cd1fd0a4f28419497f9722a3daafe3b4186f6b6457e0908390a36000805473ffffffffffffffffffffffffffffffffffffffff19169055565b60055481565b6000546001600160a01b031690565b600080546001600160a01b03163314610853576040805162461bcd60e51b815260206004820181905260248201527f4f776e61626c653a2063616c6c6572206973206e6f7420746865206f776e6572604482015290519081900360640190fd5b60075460ff16151560011461089d576040805162461bcd60e51b815260206004820152600b60248201526a139bdd081cdd185c9d195960aa1b604482015290519081900360640190fd5b6005544210156108f4576040805162461bcd60e51b815260206004820152600960248201527f4e6f7420656e6465640000000000000000000000000000000000000000000000604482015290519081900360640190fd5b600154604080516370a0823160e01b815230600482015290516109849285926001600160a01b03909116916370a0823191602480820192602092909190829003018186803b15801561094557600080fd5b505afa158015610959573d6000803e3d6000fd5b505050506040513d602081101561096f57600080fd5b50516001546001600160a01b03169190610b8a565b506001919050565b6001546001600160a01b031681565b60045481565b6002546001600160a01b031681565b60006109e76109ce633b9aca00600354610c0f90919063ffffffff16565b6109e16019670de0b6b3a7640000610c51565b90610c0f565b905090565b60065481565b6000546001600160a01b03163314610a51576040805162461bcd60e51b815260206004820181905260248201527f4f776e61626c653a2063616c6c6572206973206e6f7420746865206f776e6572604482015290519081900360640190fd5b6001600160a01b038116610a965760405162461bcd60e51b8152600401808060200182810382526026815260200180610f886026913960400191505060405180910390fd5b600080546040516001600160a01b03808516939216917f8be0079c531659141344cd1fd0a4f28419497f9722a3daafe3b4186f6b6457e091a36000805473ffffffffffffffffffffffffffffffffffffffff19166001600160a01b0392909216919091179055565b60035481565b60006106a7610b22633b9aca00600354610c0f90919063ffffffff16565b8390610c0f565b600082820183811015610b83576040805162461bcd60e51b815260206004820152601b60248201527f536166654d6174683a206164646974696f6e206f766572666c6f770000000000604482015290519081900360640190fd5b9392505050565b604080516001600160a01b038416602482015260448082018490528251808303909101815260649091019091526020810180517bffffffffffffffffffffffffffffffffffffffffffffffffffffffff167fa9059cbb00000000000000000000000000000000000000000000000000000000179052610c0a908490610caa565b505050565b6000610b8383836040518060400160405280601a81526020017f536166654d6174683a206469766973696f6e206279207a65726f000000000000815250610d5b565b600082610c60575060006106a7565b82820282848281610c6d57fe5b0414610b835760405162461bcd60e51b8152600401808060200182810382526021815260200180610fae6021913960400191505060405180910390fd5b6060610cff826040518060400160405280602081526020017f5361666545524332303a206c6f772d6c6576656c2063616c6c206661696c6564815250856001600160a01b0316610dfd9092919063ffffffff16565b805190915015610c0a57808060200190516020811015610d1e57600080fd5b5051610c0a5760405162461bcd60e51b815260040180806020018281038252602a815260200180610fcf602a913960400191505060405180910390fd5b60008183610de75760405162461bcd60e51b81526004018080602001828103825283818151815260200191508051906020019080838360005b83811015610dac578181015183820152602001610d94565b50505050905090810190601f168015610dd95780820380516001836020036101000a031916815260200191505b509250505060405180910390fd5b506000838581610df357fe5b0495945050505050565b6060610e0c8484600085610e14565b949350505050565b6060610e1f85610f81565b610e70576040805162461bcd60e51b815260206004820152601d60248201527f416464726573733a2063616c6c20746f206e6f6e2d636f6e7472616374000000604482015290519081900360640190fd5b60006060866001600160a01b031685876040518082805190602001908083835b60208310610eaf5780518252601f199092019160209182019101610e90565b6001836020036101000a03801982511681845116808217855250505050505090500191505060006040518083038185875af1925050503d8060008114610f11576040519150601f19603f3d011682016040523d82523d6000602084013e610f16565b606091505b50915091508115610f2a579150610e0c9050565b805115610f3a5780518082602001fd5b60405162461bcd60e51b8152602060048201818152865160248401528651879391928392604401919085019080838360008315610dac578181015183820152602001610d94565b3b15159056fe4f776e61626c653a206e6577206f776e657220697320746865207a65726f2061646472657373536166654d6174683a206d756c7469706c69636174696f6e206f766572666c6f775361666545524332303a204552433230206f7065726174696f6e20646964206e6f742073756363656564a264697066735822122074921dc53312074eb28def0af651ad702e5341f26715bef6c7df579f01bfa09e64736f6c63430007050033",
  "devdoc": {
    "kind": "dev",
    "methods": {
      "owner()": {
        "details": "Returns the address of the current owner."
      },
      "renounceOwnership()": {
        "details": "Leaves the contract without owner. It will not be possible to call `onlyOwner` functions anymore. Can only be called by the current owner. NOTE: Renouncing ownership will leave the contract without an owner, thereby removing any functionality that is only available to the owner."
      },
      "transferOwnership(address)": {
        "details": "Transfers ownership of the contract to a new account (`newOwner`). Can only be called by the current owner."
      }
    },
    "version": 1
  },
  "userdoc": {
    "kind": "user",
    "methods": {},
    "version": 1
  },
  "storageLayout": {
    "storage": [
      {
        "astId": 797,
        "contract": "contracts/presale/RIPPresale.sol:RIPPresale",
        "label": "_owner",
        "offset": 0,
        "slot": "0",
        "type": "t_address"
      },
      {
        "astId": 1506,
        "contract": "contracts/presale/RIPPresale.sol:RIPPresale",
        "label": "aRIP",
        "offset": 0,
        "slot": "1",
        "type": "t_address"
      },
      {
        "astId": 1508,
        "contract": "contracts/presale/RIPPresale.sol:RIPPresale",
        "label": "addressToSendBNB",
        "offset": 0,
        "slot": "2",
        "type": "t_address"
      },
      {
        "astId": 1514,
        "contract": "contracts/presale/RIPPresale.sol:RIPPresale",
        "label": "salePrice",
        "offset": 0,
        "slot": "3",
        "type": "t_uint256"
      },
      {
        "astId": 1516,
        "contract": "contracts/presale/RIPPresale.sol:RIPPresale",
        "label": "totalParticipants",
        "offset": 0,
        "slot": "4",
        "type": "t_uint256"
      },
      {
        "astId": 1518,
        "contract": "contracts/presale/RIPPresale.sol:RIPPresale",
        "label": "endOfSale",
        "offset": 0,
        "slot": "5",
        "type": "t_uint256"
      },
      {
        "astId": 1520,
        "contract": "contracts/presale/RIPPresale.sol:RIPPresale",
        "label": "totalPurchased",
        "offset": 0,
        "slot": "6",
        "type": "t_uint256"
      },
      {
        "astId": 1522,
        "contract": "contracts/presale/RIPPresale.sol:RIPPresale",
        "label": "saleStarted",
        "offset": 0,
        "slot": "7",
        "type": "t_bool"
      },
      {
        "astId": 1526,
        "contract": "contracts/presale/RIPPresale.sol:RIPPresale",
        "label": "boughtRIP",
        "offset": 0,
        "slot": "8",
        "type": "t_mapping(t_address,t_bool)"
      }
    ],
    "types": {
      "t_address": {
        "encoding": "inplace",
        "label": "address",
        "numberOfBytes": "20"
      },
      "t_bool": {
        "encoding": "inplace",
        "label": "bool",
        "numberOfBytes": "1"
      },
      "t_mapping(t_address,t_bool)": {
        "encoding": "mapping",
        "key": "t_address",
        "label": "mapping(address => bool)",
        "numberOfBytes": "32",
        "value": "t_bool"
      },
      "t_uint256": {
        "encoding": "inplace",
        "label": "uint256",
        "numberOfBytes": "32"
      }
    }
  }
}